:100000000C942A000C9447000C9447000C94470071
:100010000C9447000C9447000C9447000C94470044
:100020000C9447000C9447000C9447000C94470034
:100030000C9447000C9447000C9447000C94470024
:100040000C9447000C9447000C9447000C94470014
:100050000C94470011241FBECFE5D8E0DEBFCDBF12
:1000600010E0A0E6B0E0E8ECFBE302C005900D92E2
:10007000A838B107D9F710E0A8E8B0E001C01D9298
:10008000A33AB107E1F70E94AB130C94E21D0C9464
:100090000000EF92FF920F931F937B018C0120E0F1
:1000A00030E040E05FE40E94F50388238CF0C80153
:1000B000B70120E030E040E05FE40E94C1010E940F
:1000C00055049B01AC01205030404040504806C0D0
:1000D000C801B7010E9455049B01AC01B901CA01D6
:1000E0001F910F91FF90EF900895A0E0B0E0EBE733
:1000F000F0E00C94AB1DDC012B01FA019C919230D5
:1001000008F439C1EB018881823008F433C194309E
:1001100069F4843009F02FC111969C91119789815F
:10012000981709F428C1A0E6B0E025C1843009F48D
:1001300021C18230A9F4923009F01DC19A01AD01AC
:1001400088E0EA010990AE01E90109929E0181501F
:10015000C1F7E201898111969C918923818308C1AD
:10016000923009F407C112962D903C901397EB0141
:100170008A819B811496AD90BD90CD90DC901797AD
:10018000EC80FD800E811F819101281B390BB90184
:1001900037FF04C066277727621B730B6032710537
:1001A0000CF061C0121613066CF537014801062EDB
:1001B00004C096948794779467940A94D2F721E0C8
:1001C00030E040E050E004C0220F331F441F551FB1
:1001D0006A95D2F721503040404050402E213F21B7
:1001E00040235123211531054105510521F021E01E
:1001F00030E040E050E079018A01E628F72808293C
:1002000019293CC0232BD1F1260E371E350146019A
:10021000062E04C096948794779467940A94D2F734
:1002200021E030E040E050E004C0220F331F441FC3
:10023000551F6A95D2F721503040404050402A2146
:100240003B214C215D21211531054105510521F04E
:1002500021E030E040E050E059016A01A628B728CB
:10026000C828D9280BC0821593052CF01C01AA249C
:10027000BB24650103C0EE24FF24870111969C91E5
:10028000D20111968C91981709F445C0992339F041
:10029000A80197012A193B094C095D0906C0A6016E
:1002A00095012E193F09400B510B57FD08C01182D3
:1002B0003382228224833583468357831DC081E0A5
:1002C00081833382228288279927DC01821B930B4A
:1002D000A40BB50B84839583A683B7830DC0220F2F
:1002E000331F441F551F24833583468357838281E0
:1002F000938101979383828324813581468157813D
:10030000DA01C9010197A109B1098F5F9F4FAF4F72
:10031000BF4328F30BC0918333822282EA0CFB1C7B
:100320000C1D1D1DE482F5820683178383E0808304
:10033000248135814681578157FF1AC0C901AA27F8
:1003400097FDA095BA2F81709070A070B0705695EF
:10035000479537952795822B932BA42BB52B848318
:100360009583A683B7838281938101969383828349
:10037000DF0101C0D201CD01CDB7DEB7E2E10C94BF
:10038000C71DA0E2B0E0E7ECF1E00C94B71D698373
:100390007A838B839C832D833E834F835887E9E048
:1003A000EE2EF12CEC0EFD1ECE010196B7010E943F
:1003B0007E058E010F5E1F4FCE010596B8010E948B
:1003C0007E058A8991E089278A8BC701B801AE0131
:1003D000475E5F4F0E9475000E94A904A096E6E068
:1003E0000C94D31DA0E2B0E0E8EFF1E00C94B71D4F
:1003F00069837A838B839C832D833E834F835887C5
:10040000F9E0EF2EF12CEC0EFD1ECE010196B701A6
:100410000E947E058E010F5E1F4FCE010596B8012A
:100420000E947E05C701B801AE01475E5F4F0E9482
:1004300075000E94A904A096E6E00C94D31DA0E2EA
:10044000B0E0E5E2F2E00C94AB1D69837A838B8324
:100450009C832D833E834F835887CE010196BE0136
:10046000675F7F4F0E947E05CE010596BE016F5EDD
:100470007F4F0E947E059985923088F0898982306D
:10048000C8F0943019F4823051F404C0843029F457
:10049000923081F480E690E0C6C0923049F420E0CA
:1004A0009A858A89981321E02A87CE010996BBC0D4
:1004B000823049F420E09A858A89981321E02A8BBA
:1004C000CE014196B0C02D843E844F8458886D88FB
:1004D0007E888F88988CEE24FF248701AA24BB2471
:1004E000650140E050E060E070E0E0E0F0E0C10174
:1004F00081709070892BE9F0E60CF71C081D191D1E
:100500009A01AB012A0D3B1D4C1D5D1D80E090E062
:10051000A0E0B0E0E614F7040805190520F481E036
:1005200090E0A0E0B0E0BA01A901480F591F6A1F8E
:100530007B1FAA0CBB1CCC1CDD1C97FE08C081E0F5
:1005400090E0A0E0B0E0A82AB92ACA2ADB2A3196B6
:10055000E032F10549F0660C771C881C991C569412
:10056000479437942794C3CFFA85EA892B893C892D
:100570008B859C85280F391F2E5F3F4F17C0CA01FE
:1005800081709070892B61F016950795F794E79428
:1005900080E090E0A0E0B0E8E82AF92A0A2B1B2BC3
:1005A00076956795579547952F5F3F4F77FDE7CF36
:1005B0000CC0440F551F661F771F17FD4160EE0CDE
:1005C000FF1C001F111F21503040403090E05907A0
:1005D00090E0690790E4790760F32B8F3C8FDB0193
:1005E000CA018F779070A070B07080349105A1051A
:1005F000B10561F447FD0AC0E114F10401051105DC
:1006000029F0405C5F4F6F4F7F4F40781A8EFE1786
:1006100011F081E08A8F4D8F5E8F6F8F78A383E01A
:10062000898FCE0149960E94A904A096E2E10C941C
:10063000C71DA8E1B0E0EFE1F3E00C94B31D6983BE
:100640007A838B839C832D833E834F835887B9E0C5
:10065000EB2EF12CEC0EFD1ECE010196B7010E948F
:100660007E058E010F5E1F4FCE010596B8010E94D8
:100670007E052985223008F47EC03989323010F495
:10068000B8017CC08A859A8989278A87243011F02D
:10069000223031F4231709F06EC060E670E06EC0BE
:1006A000343039F41D861E861F86188A1C861B86E8
:1006B00004C0323021F484E08987B7015FC02B8504
:1006C0003C858B899C89281B390B3C872B87ED84C3
:1006D000FE840F851889AD88BE88CF88D88CEA142F
:1006E000FB040C051D0540F4EE0CFF1C001F111F40
:1006F000215030403C872B8720E030E040E050E044
:1007000080E090E0A0E0B0E460E070E0EA14FB0478
:100710000C051D0540F0282B392B4A2B5B2BEA18C2
:10072000FB080C091D09B695A79597958795EE0CC2
:10073000FF1C001F111F6F5F7F4F6F31710531F775
:10074000DA01C9018F779070A070B0708034910584
:10075000A105B10561F427FD0AC0E114F10401050A
:10076000110529F0205C3F4F4F4F5F4F20782D87B8
:100770003E874F87588BBE01675F7F4FCB010E943A
:10078000A9046896EAE00C94CF1DA8E1B0E0EBEC78
:10079000F3E00C94B71D69837A838B839C832D834C
:1007A0003E834F83588789E0E82EF12CEC0EFD1E26
:1007B000CE010196B7010E947E058E010F5E1F4F8C
:1007C000CE010596B8010E947E058985823040F0F1
:1007D0008989823028F0C701B8010E94F60501C05E
:1007E0008FEF6896E6E00C94D31DA8E1B0E0EBEF44
:1007F000F3E00C94B71D69837A838B839C832D83EC
:100800003E834F83588789E0E82EF12CEC0EFD1EC5
:10081000CE010196B7010E947E058E010F5E1F4F2B
:10082000CE010596B8010E947E058985823040F090
:100830008989823028F0C701B8010E94F60501C0FD
:100840008FEF6896E6E00C94D31DA8E1B0E0EBE2F0
:10085000F4E00C94B71D69837A838B839C832D838A
:100860003E834F83588789E0E82EF12CEC0EFD1E65
:10087000CE010196B7010E947E058E010F5E1F4FCB
:10088000CE010596B8010E947E058985823040F030
:100890008989823028F0C701B8010E94F60501C09D
:1008A00081E06896E6E00C94D31DACE0B0E0EBE5A7
:1008B000F4E00C94BB1D69837A838B839C83CE0107
:1008C0000196BE016B5F7F4F0E947E058D81823055
:1008D00061F1823050F1843021F48E81882351F10E
:1008E0002EC02F81388537FD20C06E812F31310514
:1008F0001CF06623F9F023C08EE190E0821B930B7D
:1009000029853A854B855C8504C056954795379572
:1009100027958A95D2F76623B1F05095409530958A
:1009200021953F4F4F4F5F4F0EC020E030E040E039
:1009300050E009C02FEF3FEF4FEF5FE704C020E02A
:1009400030E040E050E8B901CA012C96E2E00C9496
:10095000D71DDF92EF92FF920F931F93FC01E4806B
:10096000F58006811781D1808081823048F480E053
:1009700090E0A0E1B0E0E82AF92A0A2B1B2BA5C0E1
:10098000843009F49FC0823021F4EE24FF248701D3
:1009900005C0E114F1040105110519F4E0E0F0E0EF
:1009A00096C0628173819FEF623879070CF05BC05B
:1009B00022E83FEF261B370B2A3131052CF020E0CF
:1009C00030E040E050E02AC0B801A701022E04C088
:1009D00076956795579547950A94D2F781E090E010
:1009E000A0E0B0E004C0880F991FAA1FBB1F2A9582
:1009F000D2F70197A109B1098E219F21A023B1232C
:100A00000097A105B10521F081E090E0A0E0B0E001
:100A10009A01AB01282B392B4A2B5B2BDA01C90138
:100A20008F779070A070B07080349105A105B105EA
:100A300039F427FF09C0205C3F4F4F4F5F4F04C080
:100A4000215C3F4F4F4F5F4FE0E0F0E02030A0E0EF
:100A50003A07A0E04A07A0E45A0710F0E1E0F0E00E
:100A600079018A0127C06038710564F5FB01E158FE
:100A7000FF4FD801C7018F779070A070B07080349D
:100A80009105A105B10539F4E7FE0DC080E490E0C1
:100A9000A0E0B0E004C08FE390E0A0E0B0E0E80E9A
:100AA000F91E0A1F1B1F17FF05C016950795F7941F
:100AB000E794319687E016950795F794E7948A9521
:100AC000D1F705C0EE24FF248701EFEFF0E06E2F91
:100AD000679566276795902F9F77D794DD24D794E5
:100AE0008E2F8695492F462B582F5D29B701CA01B5
:100AF0001F910F91FF90EF90DF900895FC01DB01B3
:100B0000408151812281622F6F7770E0221F22275E
:100B1000221F9381892F880F822B282F30E0991F65
:100B20009927991F11969C93119721153105A9F5C5
:100B3000411551056105710511F482E037C082E865
:100B40009FEF13969C938E9312979A01AB0167E0E7
:100B5000220F331F441F551F6A95D1F783E08C93F2
:100B60000DC0220F331F441F551F12968D919C916B
:100B70001397019713969C938E931297203080E0E1
:100B8000380780E0480780E4580758F314962D93FF
:100B90003D934D935C93179708952F3F310579F45A
:100BA000411551056105710519F484E08C93089590
:100BB00064FF03C081E08C9312C01C9210C02F57B9
:100BC000304013963C932E93129783E08C9387E0EA
:100BD000440F551F661F771F8A95D1F770641496CE
:100BE0004D935D936D937C93179708951F93DC014C
:100BF000FB019C91923008F447C08081823008F458
:100C000043C0943051F411961C91843099F5818140
:100C1000682F70E0611B71093FC0843021F0923071
:100C200031F48230B9F18181882389F12DC0119688
:100C30001C9111978230F1F081811817D9F4129626
:100C40002D913C911397828193818217930794F0A1
:100C500028173907BCF014968D919D910D90BC9189
:100C6000A02D2481358146815781281739074A07ED
:100C70005B0718F4112341F00AC082179307A407F9
:100C8000B50740F4112319F061E070E005C06FEF83
:100C90007FEF02C060E070E0CB011F910895DF9309
:100CA000CF93CDB7DEB727970FB6F894DEBF0FBE50
:100CB000CDBF8B836C834D831A8219828C818830DF
:100CC00008F061C08B81282F30E03F832E838E8116
:100CD0009F8182309105D9F02E813F8123303105EB
:100CE00034F48E819F818130910561F04CC02E815A
:100CF0003F812330310581F08E819F8184309105C1
:100D000081F041C08AE390E09A8389830EC087E333
:100D100090E09A83898309C084E390E09A83898371
:100D200004C081E390E09A8389838D818823A9F4AC
:100D3000E981FA818081482F8C81282F30E081E081
:100D400090E0022E02C0880F991F0A94E2F7809566
:100D50008423E981FA81808316C08D81813099F4E2
:100D6000E981FA818081482F8C81282F30E081E051
:100D700090E0022E02C0880F991F0A94E2F7842B9C
:100D8000E981FA81808327960FB6F894DEBF0FBE03
:100D9000CDBFCF91DF910895DF93CF9300D000D0E6
:100DA000CDB7DEB789836A838981282F30E03C8301
:100DB0002B838B819C8182309105D9F02B813C81E2
:100DC0002330310534F48B819C818130910561F0B1
:100DD0001EC02B813C812330310581F08B819C81A9
:100DE0008430910581F013C0EAE3F0E08A818083CA
:100DF0000EC0E7E3F0E08A81808309C0E4E3F0E01D
:100E00008A81808304C0E1E3F0E08A8180830F90CF
:100E10000F900F900F90CF91DF910895DF93CF93B4
:100E2000CDB7DEB727970FB6F894DEBF0FBECDBFA4
:100E30008B836C834D831A8219828C81883008F0F1
:100E400061C08B81282F30E03F832E838E819F816C
:100E500082309105D9F02E813F812330310534F461
:100E60008E819F818130910561F04CC02E813F8140
:100E70002330310581F08E819F818430910581F08E
:100E800041C08BE390E09A8389830EC088E390E0B1
:100E90009A83898309C085E390E09A83898304C09B
:100EA00082E390E09A8389838D818130A1F4E98186
:100EB000FA818081482F8C81282F30E081E090E0FA
:100EC000022E02C0880F991F0A94E2F7842BE98151
:100ED000FA81808317C08D818823A1F4E981FA818A
:100EE0008081482F8C81282F30E081E090E0022E15
:100EF00002C0880F991F0A94E2F780958423E98144
:100F0000FA81808327960FB6F894DEBF0FBECDBF5F
:100F1000CF91DF910895DF93CF9300D000D0CDB76C
:100F2000DEB789836A838981282F30E03C832B8355
:100F30008B819C8182309105D9F02B813C812330BB
:100F4000310534F48B819C818130910561F01EC0A4
:100F50002B813C812330310581F08B819C81843051
:100F6000910581F013C0EBE3F0E08A8180830EC02D
:100F7000E8E3F0E08A81808309C0E5E3F0E08A815C
:100F8000808304C0E2E3F0E08A8180830F900F90B9
:100F90000F900F90CF91DF910895DF93CF93CDB74E
:100FA000DEB728970FB6F894DEBF0FBECDBF8B8398
:100FB0006C835E834D838C81883008F048C01A8230
:100FC00019828B81282F30E038872F834F815885F5
:100FD00042305105D9F08F8198858330910534F4E2
:100FE0002F8138852130310561F031C04F8158851E
:100FF0004330510581F08F8198858430910581F0CF
:1010000026C089E390E09A8389830EC086E390E04E
:101010009A83898309C083E390E09A83898304C01B
:1010200080E390E09A838983E981FA818081282F87
:1010300030E08C81882F90E0A90102C0559547953A
:101040008A95E2F7CA018170ED81FE81808328963E
:101050000FB6F894DEBF0FBECDBFCF91DF910895DC
:10106000DF93CF9300D000D00F92CDB7DEB7898346
:101070007B836A838981282F30E03D832C838C8198
:101080009D8182309105E9F02C813D81233031052D
:1010900034F48C819D818130910561F026C02C81D2
:1010A0003D8123303105A1F08C819D8184309105F3
:1010B000B1F01BC0E9E3F0E08081EA81FB8180832D
:1010C00014C0E6E3F0E08081EA81FB8180830DC0FB
:1010D000E3E3F0E08081EA81FB81808306C0E0E306
:1010E000F0E08081EA81FB8180830F900F900F9068
:1010F0000F900F90CF91DF910895DF93CF9300D0A1
:1011000000D000D0CDB7DEB78B836C838C81883064
:1011100008F048C01A8219828B81282F30E03E8364
:101120002D838D819E8182309105D9F02D813E8164
:101130002330310534F48D819E818130910561F039
:1011400031C02D813E812330310581F08D819E811A
:101150008430910581F026C08BE390E09A838983E7
:101160000EC088E390E09A83898309C085E390E00C
:101170009A83898304C082E390E09A838983E9811A
:10118000FA818081482F8C81282F30E081E090E027
:10119000022E02C0880F991F0A94E2F78427E98182
:1011A000FA81808326960FB6F894DEBF0FBECDBFBE
:1011B000CF91DF910895DF93CF9300D00F92CDB7F9
:1011C000DEB789838981282F30E03B832A838A8197
:1011D0009B8182309105F1F02A813B8123303105DA
:1011E00034F48A819B818130910561F02AC02A8183
:1011F0003B8123303105B1F08A819B818430910598
:10120000C9F01FC0ABE3B0E0EBE3F0E08081809574
:101210008C9317C0A8E3B0E0E8E3F0E0808180950C
:101220008C930FC0A5E3B0E0E5E3F0E0808180950A
:101230008C9307C0A2E3B0E0E2E3F0E08081809508
:101240008C930F900F900F90CF91DF910895DF93C3
:10125000CF9300D0CDB7DEB789836A838A81883087
:1012600050F489816A8140E00E944F0689816A8139
:1012700041E00E940E070F900F90CF91DF910895EB
:10128000DF93CF9300D0CDB7DEB789836A838A819D
:10129000883050F489816A8140E00E944F0689813C
:1012A0006A8140E00E940E070F900F90CF91DF916E
:1012B0000895DF93CF9300D000D0CDB7DEB78983F8
:1012C0006A838A81282F30E03C832B838B819C8129
:1012D0008130910531F02B813C812230310589F03C
:1012E0001FC083E06FEF0E94CC068981882F90E0B9
:1012F000FC01E859FF4F908183E0692F0E948B0722
:101300000FC084E06FEF0E94CC068981882F90E0A7
:10131000FC01E859FF4F908184E0692F0E948B0700
:101320000F900F900F900F90CF91DF910895DF9362
:10133000CF9300D00F92CDB7DEB789836A834B83FA
:101340008981882F90E0880F991FFC01E857FF4F93
:101350008A8180838981882F90E0880F991FFC0102
:10136000E757FF4F8B8180838A816B8141E00E9428
:101370004F060F900F900F90CF91DF910895DF935C
:10138000CF9300D0CDB7DEB789836A838A81882363
:10139000B9F48981882F90E0880F991FFC01E857E4
:1013A000FF4F20818981882F90E0880F991FFC01D1
:1013B000E757FF4F9081822F692F40E00E940E0770
:1013C0008A818130B9F48981882F90E0880F991F34
:1013D000FC01E857FF4F20818981882F90E0880F1A
:1013E000991FFC01E757FF4F9081822F692F41E041
:1013F0000E940E070F900F90CF91DF910895DF9319
:10140000CF9300D0CDB7DEB789836A838A818823E2
:10141000B9F48981882F90E0880F991FFC01E85763
:10142000FF4F20818981882F90E0880F991FFC0150
:10143000E757FF4F9081822F692F41E00E940E07EE
:101440008A818130B9F48981882F90E0880F991FB3
:10145000FC01E857FF4F20818981882F90E0880F99
:10146000991FFC01E757FF4F9081822F692F40E0C1
:101470000E940E070F900F90CF91DF910895DF9398
:10148000CF930F92CDB7DEB789838981882F90E003
:10149000880F991FFC01E857FF4F20818981882F11
:1014A00090E0880F991FFC01E757FF4F9081822F32
:1014B000692F0E947D080F90CF91DF910895DF93EF
:1014C000CF93CDB7DEB7E0970FB6F894DEBF0FBE6F
:1014D000CDBF84E062E041E00E940E0780E090E032
:1014E000A8E4B2E48DA79EA7AFA7B8AB6DA57EA573
:1014F0008FA598A92BEA3AEA4AE250E40E941F021B
:10150000DC01CB0189A79AA7ABA7BCA769A57AA5DF
:101510008BA59CA520E030E040E85FE30E94250415
:1015200088231CF481E088A791C069A57AA58BA5C2
:101530009CA520E030E04FE753E40E94C503181655
:101540000CF07BC06DA57EA58FA598A920E030E0AA
:101550004AE754E40E941903DC01CB018CA39DA34C
:10156000AEA3BFA36CA17DA18EA19FA120E030E01E
:101570004AEF54E40E941F02DC01CB0188A399A327
:10158000AAA3BBA368A179A18AA19BA120E030E016
:1015900040E85FE30E94250488232CF481E090E07A
:1015A0009F8F8E8F3FC068A179A18AA19BA120E067
:1015B0003FEF4FE757E40E94C50318164CF56CA1A6
:1015C0007DA18EA19FA120E030E040E251E40E9485
:1015D0001F02DC01CB01BC01CD010E944900DC01EE
:1015E000CB019F8F8E8F0FC088EC90E09D8F8C8FEA
:1015F0008C8D9D8D0197F1F79D8F8C8F8E8D9F8D9A
:1016000001979F8F8E8F8E8D9F8D009769F724C0D5
:1016100068A179A18AA19BA10E944900DC01CB01AC
:101620009F8F8E8F8E8D9F8D9B8F8A8F8A8D9B8DA6
:101630000197F1F79B8F8A8F0FC069A57AA58BA5BB
:101640009CA50E944900DC01CB0188A788A5898F51
:10165000898D8A95F1F7898F84E062E040E00E94ED
:101660000E0780E090E0A8E4B2E48D8B9E8BAF8BF8
:10167000B88F6D897E898F89988D2BEA3AEA4AE284
:1016800050E40E941F02DC01CB01898B9A8BAB8B4B
:10169000BC8B69897A898B899C8920E030E040E89D
:1016A0005FE30E94250488231CF481E0888B91C0AD
:1016B00069897A898B899C8920E030E04FE753E47F
:1016C0000E94C50318160CF07BC06D897E898F8936
:1016D000988D20E030E04AE754E40E941903DC01D1
:1016E000CB018C879D87AE87BF876C857D858E8576
:1016F0009F8520E030E04AEF54E40E941F02DC01A5
:10170000CB0188879987AA87BB87688579858A8571
:101710009B8520E030E040E85FE30E9425048823B9
:101720002CF481E090E09F838E833FC068857985AB
:101730008A859B8520E03FEF4FE757E40E94C50371
:1017400018164CF56C857D858E859F8520E030E0F0
:1017500040E251E40E941F02DC01CB01BC01CD013B
:101760000E944900DC01CB019F838E830FC088EC6F
:1017700090E09D838C838C819D810197F1F79D83FF
:101780008C838E819F8101979F838E838E819F8121
:10179000009769F724C0688579858A859B850E94B2
:1017A0004900DC01CB019F838E838E819F819B83C7
:1017B0008A838A819B810197F1F79B838A830FC07B
:1017C00069897A898B899C890E944900DC01CB0157
:1017D000888B8889898389818A95F1F78983E09646
:1017E0000FB6F894DEBF0FBECDBFCF91DF91089545
:1017F000DF93CF930F92CDB7DEB7898384E060E0AB
:1018000040E00E940E0784E061E040E00E940E0785
:1018100083E069810E948B070E945F0A0F90CF913D
:10182000DF910895DF93CF930F92CDB7DEB7898311
:1018300084E060E041E00E940E0784E061E040E067
:101840000E940E0783E069810E948B070E945F0A55
:101850000F90CF91DF910895DF93CF93CDB7DEB78F
:10186000E8970FB6F894DEBF0FBECDBF83E061E00E
:101870000E94CC0684E060E041E00E944F0684E0D4
:1018800061E041E00E944F0684E062E041E00E9496
:101890004F0680E090E0A0EFB1E48DAB9EABAFAB24
:1018A000B8AF6DA97EA98FA998AD20E030E04AEFCE
:1018B00054E40E941F02DC01CB0189AB9AABABABB5
:1018C000BCAB69A97AA98BA99CA920E030E040E8CB
:1018D0005FE30E94250488232CF481E090E098AB1C
:1018E0008FA73FC069A97AA98BA99CA920E03FEFE7
:1018F0004FE757E40E94C50318164CF56DA97EA961
:101900008FA998AD20E030E040E251E40E941F0230
:10191000DC01CB01BC01CD010E944900DC01CB01FF
:1019200098AB8FA70FC088EC90E09EA78DA78DA5E0
:101930009EA50197F1F79EA78DA78FA598A901975E
:1019400098AB8FA78FA598A9009769F714C069A9CC
:101950007AA98BA99CA90E944900DC01CB0198AB14
:101960008FA78FA598A99CA78BA78BA59CA501974E
:10197000F1F79CA78BA784E061E040E00E940E078E
:1019800088E30E94F80B80E090E0A0E8BFE38FA31B
:1019900098A7A9A7BAA76FA178A589A59AA520E0BD
:1019A00030E04AEF54E40E941F02DC01CB018BA31C
:1019B0009CA3ADA3BEA36BA17CA18DA19EA120E0A1
:1019C00030E040E85FE30E94250488232CF481E0A6
:1019D00090E09AA389A33FC06BA17CA18DA19EA199
:1019E00020E03FEF4FE757E40E94C50318164CF57F
:1019F0006FA178A589A59AA520E030E040E251E4E6
:101A00000E941F02DC01CB01BC01CD010E944900F4
:101A1000DC01CB019AA389A30FC088EC90E098A3C6
:101A20008F8F8F8D98A10197F1F798A38F8F89A140
:101A30009AA101979AA389A389A19AA1009769F70E
:101A400014C06BA17CA18DA19EA10E944900DC0164
:101A5000CB019AA389A389A19AA19E8F8D8F8D8D89
:101A60009E8D0197F1F79E8F8D8F8CE00E94F80B71
:101A700080E090E0A0E8BFE3898F9A8FAB8FBC8FA6
:101A8000698D7A8D8B8D9C8D20E030E04AEF54E497
:101A90000E941F02DC01CB018D8B9E8BAF8BB88F18
:101AA0006D897E898F89988D20E030E040E85FE382
:101AB0000E94250488232CF481E090E09C8B8B8B82
:101AC0003FC06D897E898F89988D20E03FEF4FE779
:101AD00057E40E94C50318164CF5698D7A8D8B8DDD
:101AE0009C8D20E030E040E251E40E941F02DC01C6
:101AF000CB01BC01CD010E944900DC01CB019C8BD4
:101B00008B8B0FC088EC90E09A8B898B89899A899E
:101B10000197F1F79A8B898B8B899C8901979C8B14
:101B20008B8B8B899C89009769F714C06D897E899E
:101B30008F89988D0E944900DC01CB019C8B8B8B97
:101B40008B899C89988B8F878F8598890197F1F76E
:101B5000988B8F8781E00E94F80B80E090E0A0E0F6
:101B6000B0E48B879C87AD87BE876B857C858D8530
:101B70009E8520E030E04AEF54E40E941F02DC0121
:101B8000CB018F839887A987BA876F8178858985EC
:101B90009A8520E030E040E85FE30E942504882336
:101BA0002CF481E090E09E838D833FC06F81788527
:101BB00089859A8520E03FEF4FE757E40E94C503EF
:101BC00018164CF56B857C858D859E8520E030E070
:101BD00040E251E40E941F02DC01CB01BC01CD01B7
:101BE0000E944900DC01CB019E838D830FC088ECED
:101BF00090E09C838B838B819C810197F1F79C8380
:101C00008B838D819E8101979E838D838D819E81A3
:101C1000009769F714C06F81788589859A850E943D
:101C20004900DC01CB019E838D838D819E819A8347
:101C3000898389819A810197F1F79A83898386E064
:101C40000E94F80BE8960FB6F894DEBF0FBECDBF2A
:101C5000CF91DF910895DF93CF9300D000D00F9202
:101C6000CDB7DEB79C838B836D838D81883028F55B
:101C70008D81882F90E0880F991F880F991F880FFA
:101C8000991F80648A838A810E94F80B19820EC092
:101C90008981282F30E08B819C81FC01E20FF31FAA
:101CA00080810E94120C89818F5F898389818830AD
:101CB00078F380E060E00E94090F0F900F900F9082
:101CC0000F900F90CF91DF910895DF93CF9300D0C5
:101CD000CDB7DEB79A8389830AC0E981FA81808112
:101CE0000E94120C89819A8101969A838983E981E5
:101CF000FA818081882389F70F900F90CF91DF912F
:101D00000895DF93CF93CDB7DEB72E970FB6F89433
:101D1000DEBF0FBECDBF81E00E94F80B80E090E0F7
:101D2000A0E0B0E48B879C87AD87BE876B857C8500
:101D30008D859E8520E030E04AEF54E40E941F022A
:101D4000DC01CB018F839887A987BA876F8178855B
:101D500089859A8520E030E040E85FE30E94250411
:101D600088232CF481E090E09E838D833FC06F81B7
:101D7000788589859A8520E03FEF4FE757E40E94F8
:101D8000C50318164CF56B857C858D859E8520E0F6
:101D900030E040E251E40E941F02DC01CB01BC01B3
:101DA000CD010E944900DC01CB019E838D830FC0D1
:101DB00088EC90E09C838B838B819C810197F1F769
:101DC0009C838B838D819E8101979E838D838D81E2
:101DD0009E81009769F714C06F81788589859A85FF
:101DE0000E944900DC01CB019E838D838D819E8101
:101DF0009A83898389819A810197F1F79A838983EC
:101E00002E960FB6F894DEBF0FBECDBFCF91DF91F7
:101E10000895DF93CF9300D00F92CDB7DEB78A83BA
:101E20006B838A81882319F48B81898303C08B811A
:101E3000805C898389818068898389810E94F80B0D
:101E40000F900F900F90CF91DF910895DF93CF9374
:101E5000CDB7DEB762970FB6F894DEBF0FBECDBF29
:101E600084E08B8384E08C8384E08D8384E08E83A4
:101E70001F8281E0888782E0898783E08A8784E007
:101E80008B8784E08C8784E08D8784E08E8784E074
:101E90008F8785E0888B86E0898B87E08A8B1A8222
:101EA00030C08A81282F30E0CE010396FC01E20F7A
:101EB000F31F40818A81282F30E0CE010796FC0174
:101EC000E20FF31F9081842F692F40E00E944F069C
:101ED0008A81282F30E0CE010396FC01E20FF31F28
:101EE00040818A81282F30E0CE010796FC01E20F65
:101EF000F31F9081842F692F0E9427098A818F5FA9
:101F00008A838A81843068F2198231C08981282FBE
:101F100030E0CE010B96FC01E20FF31F4081898176
:101F2000282F30E0CE010F96FC01E20FF31F9081C5
:101F3000842F692F41E00E944F068981282F30E0CD
:101F4000CE010B96FC01E20FF31F40818981282FFF
:101F500030E0CE010F96FC01E20FF31F9081842F39
:101F6000692F41E00E940E0789818F5F89838981F3
:101F7000843060F262960FB6F894DEBF0FBECDBF1C
:101F8000CF91DF910895DF93CF93CDB7DEB7E89778
:101F90000FB6F894DEBF0FBECDBF9BAB8AAB8AA94C
:101FA0009BA9009709F460C1CE0141969DAB8CAB13
:101FB000E4E7F0E0FFABEEABF0E1F8AFEEA9FFA98C
:101FC00000808EA99FA901969FAB8EABECA9FDA9BD
:101FD00000828CA99DA901969DAB8CAB98AD9150C8
:101FE00098AFE8ADEE2351F784E089A384E08AA39B
:101FF00084E08BA384E08CA31DA281E08EA382E009
:102000008FA383E088A784E089A784E08AA784E07F
:102010008BA784E08CA784E08DA785E08EA786E05F
:102020008FA787E088ABEAA9FBA98FEF808381E0C7
:1020300089AB188A15C18889282F30E0CE0189968E
:10204000FC01E20FF31F40818889282F30E0CE0188
:102050008D96FC01E20FF31F9081842F692F40E0E1
:102060000E940E071F86DEC08F85282F30E0CE012C
:102070008196FC01E20FF31F40818F85282F30E00D
:10208000CE018596FC01E20FF31F90819E012F5C2B
:102090003F4F842F692FA9010E94CD0789A988236A
:1020A00009F0BDC080E090E0A8ECB2E48B879C878B
:1020B000AD87BE876B857C858D859E8520E030E071
:1020C0004AEF54E40E941F02DC01CB018F83988702
:1020D000A987BA876F81788589859A8520E030E065
:1020E00040E85FE30E94250488232CF481E090E01F
:1020F0009E838D833FC06F81788589859A8520E096
:102100003FEF4FE757E40E94C50318164CF56B8567
:102110007C858D859E8520E030E040E251E40E9480
:102120001F02DC01CB01BC01CD010E944900DC0192
:10213000CB019E838D830FC088EC90E09C838B83C2
:102140008B819C810197F1F79C838B838D819E818C
:1021500001979E838D838D819E81009769F714C0BE
:102160006F81788589859A850E944900DC01CB01C1
:102170009E838D838D819E819A83898389819A81B3
:102180000197F1F79A8389838F85282F30E0CE015C
:102190008196FC01E20FF31F40818F85282F30E0EC
:1021A000CE018596FC01E20FF31F90819E012F5C0A
:1021B0003F4F842F692FA9010E94CD0789A9882349
:1021C00071F58F85282F30E08889482F50E0220F45
:1021D000331F220F331FCE010196820F931F840FEE
:1021E000951FFC0170968081EAA9FBA980838889EC
:1021F000282F30E0CE018996FC01E20FF31F4081C9
:102200008889282F30E0CE018D96FC01E20FF31F64
:102210009081842F692F41E00E940E0725C08F8591
:102220008F5F8F878F85843008F41ECF8889282F91
:1022300030E0CE018996FC01E20FF31F40818889CE
:10224000282F30E0CE018D96FC01E20FF31F908124
:10225000842F692F41E00E940E0788898F5F888B49
:102260008889843008F4E7CEE8960FB6F894DEBF8C
:102270000FBECDBFCF91DF910895DF93CF9300D0F4
:10228000CDB7DEB79A838983E981FA81808188237B
:10229000A9F4E981FA818281E981FA819181692F2A
:1022A00041E00E944F06E981FA818481E981FA8147
:1022B0009381692F41E00E944F060FC0E981FA81A6
:1022C0008081813051F4E981FA818281E981FA814A
:1022D0009181692F41E00E944F060F900F90CF919E
:1022E000DF910895DF93CF9300D0CDB7DEB79A8307
:1022F0008983E981FA818081813051F4E981FA8111
:102300008281E981FA819181692F41E00E940E0763
:102310000F900F90CF91DF910895DF93CF9300D06E
:10232000CDB7DEB79A838983E981FA8180818130D4
:1023300059F4E981FA818281E981FA819181692FD9
:1023400040E00E940E0719C0E981FA81808188234C
:10235000A1F4E981FA818281E981FA819181692F71
:1023600040E00E940E07E981FA818481E981FA81C7
:102370009381692F40E00E940E070F900F90CF913C
:10238000DF910895DF93CF9300D0CDB7DEB79A8366
:102390008983E981FA8180818823A1F4E981FA8126
:1023A0008281E981FA819181692F41E00E940E07C3
:1023B000E981FA818481E981FA819381692F40E082
:1023C0000E940E070F900F90CF91DF910895DF9339
:1023D000CF9300D0CDB7DEB79A838983E981FA81A4
:1023E00080818823A1F4E981FA818281E981FA81DF
:1023F0009181692F40E00E940E07E981FA81848172
:10240000E981FA819381692F41E00E940E070F90C4
:102410000F90CF91DF910895DF93CF9300D000D03C
:10242000CDB7DEB789836A838A81282F30E03C8369
:102430002B838B819C8182309105E9F02B813C813B
:102440002330310559F18B819C8181309105C1F593
:102450008981809398008981882329F481E060E054
:102460000E9427092DC08981813051F581E060E00B
:102470000E94400925C08981809399008981882321
:1024800029F481E061E00E9427091AC08981813026
:10249000B9F481E061E00E94400912C08981809313
:1024A0009A008981882329F481E062E00E9427094B
:1024B00007C08981813021F481E062E00E944009F7
:1024C0000F900F900F900F90CF91DF910895DF93B1
:1024D000CF9300D000D000D0CDB7DEB78A836B8316
:1024E0008A81282F30E03E832D838D819E8182302A
:1024F000910561F12D813E812330310509F446C0FB
:102500008D819E818130910509F060C081E060E09D
:102510009E012F5F3F4FA9010E94CD078B81882329
:1025200041F48981813019F491E09C8350C01C8270
:102530004EC08B81813041F48981882311F41C8243
:1025400046C021E02C8343C01C8241C081E061E091
:102550009E012F5F3F4FA9010E94CD078B818823E9
:1025600041F48981813019F431E03C8330C01C8210
:102570002EC08B81813041F48981882311F41C8223
:1025800026C081E08C8323C01C8221C081E062E0F0
:102590009E012F5F3F4FA9010E94CD078B818823A9
:1025A00041F48981813019F491E09C8310C01C8230
:1025B0000EC08B81813041F48981882311F41C8203
:1025C00006C021E02C8303C01C8201C01C828C81C8
:1025D00026960FB6F894DEBF0FBECDBFCF91DF9128
:1025E0000895DF93CF93CDB7DEB78091A10090918E
:1025F000A200692F40E00E940E07CF91DF9108955D
:10260000DF93CF9300D0CDB7DEB79A838983E9817A
:10261000FA81808191819093A2008093A1008091A2
:10262000A1009091A200692F41E00E944F060E94F4
:10263000F1120F900F90CF91DF910895DF93CF9318
:10264000CDB7DEB78091A1009091A200692F41E043
:102650000E940E07CF91DF910895DF93CF93CDB7FE
:10266000DEB78091A1009091A200692F0E947D08A1
:10267000CF91DF910895DF93CF9300D00F92CDB724
:10268000DEB789836A834B838981882F90E0880F26
:10269000991FFC01E556FF4F8A8180838981882F2D
:1026A00090E0880F991FFC01E456FF4F8B818083D7
:1026B0008981882F90E0880F991FFC01E556FF4F14
:1026C0008081482F50E08981882F90E0880F991FE2
:1026D000FC01E456FF4F8081282F30E0CA01B90188
:1026E0000E9427090F900F900F90CF91DF910895CE
:1026F000DF93CF9300D00F92CDB7DEB78A838A8164
:10270000882F90E0880F991FFC01E556FF4F8081CC
:10271000482F50E08A81882F90E0880F991FFC0194
:10272000E456FF4F8081282F30E0CA01B9019E0195
:102730002F5F3F4FA9010E94CD078981813019F495
:1027400081E08B8301C01B828B810F900F900F90D3
:10275000CF91DF9108950F931F93DF93CF93CDB760
:10276000DEB7CD5CD0400FB6F894DEBF0FBECDBF54
:10277000FE01E654FF4F83E08083FE01E554FF4FE6
:102780008FEF8083CE0184549F4FC753DF4F9983CF
:102790008883C95CD04084E890E0C553DF4F9983BB
:1027A0008883CB5CD04093E0C353DF4F9883CD5CEC
:1027B000D040C553DF4FA881B981CB5CD0400C908D
:1027C000C553DF4FE881F981CB5CD0403196C553CA
:1027D000DF4FF983E883CB5CD040C753DF4FA8813C
:1027E000B981C95CD0400C92C753DF4FE881F981B1
:1027F000C95CD0403196C753DF4FF983E883C95C89
:10280000D040C353DF4FF881CD5CD040F150C3536B
:10281000DF4FF883CD5CD040C353DF4F8881CD5C60
:10282000D040882331F6CE0181549F4F2AE0FC012D
:10283000DF01822F1D928A95E9F7FE01E754FF4FD1
:102840001082FE01E854FF4F83E080830E94260F30
:1028500082E790E00E94001380E061E040E00E9487
:10286000970981E061E041E00E94970982E061E020
:1028700042E00E94970983E061E043E00E949709EB
:1028800084E061E044E00E94970985E061E045E072
:102890000E94970986E061E046E00E94970987E080
:1028A00061E047E00E949709CE0185549F4F0E9446
:1028B000C30FFE01E554FF4F80818F3FA9F3FE0156
:1028C000E554FF4F8081882F90E08334910511F00B
:1028D0000C948A1DFE01E954FF4F10820C947D1D5B
:1028E000FE01E954FF4F8081282F30E0CE0184544F
:1028F0009F4FFC01E20FF31F4081FE01E954FF4F9F
:102900008081282F30E0CE0181549F4FFC01E20FDF
:10291000F31F8081481759F4FE01E754FF4FDE0191
:10292000A654BF4F90818C91981709F42DC3DE01F6
:10293000A854BF4FFE01E854FF4F808181508C9313
:10294000FE01E754FF4F108280E061E00E94BF0962
:1029500084E061E00E94BF0987E061E00E94BF0956
:10296000FE01ED54FF4F80E090E0AAE7B4E48083DD
:102970009183A283B3838E0101551F4FFE01ED5455
:10298000FF4F608171818281938120E030E04AEFC6
:1029900054E40E941F02DC01CB01F8018083918383
:1029A000A283B383FE01E155FF4F60817181828173
:1029B000938120E030E040E85FE30E942504882313
:1029C00044F4FE01E355FF4F81E090E09183808362
:1029D00064C0FE01E155FF4F608171818281938166
:1029E00020E03FEF4FE757E40E94C50318160CF0B4
:1029F00043C0FE01ED54FF4F60817181828193815C
:102A000020E030E040E251E40E941F02DC01CB01F3
:102A10008E0103551F4FBC01CD010E944900DC010E
:102A2000CB01F801918380831FC0FE01E555FF4F64
:102A300088EC90E091838083FE01E555FF4F808113
:102A400091810197F1F7FE01E555FF4F9183808356
:102A5000DE01A355BF4FFE01E355FF4F80819181F9
:102A6000019711969C938E93FE01E355FF4F808151
:102A700091810097D1F627C08E0103551F4FFE01AB
:102A8000E155FF4F60817181828193810E944900ED
:102A9000DC01CB01F80191838083DE01A755BF4F94
:102AA000FE01E355FF4F808191818D939C93FE0140
:102AB000E755FF4F808191810197F1F7FE01E755BE
:102AC000FF4F9183808380E061E00E94FF0984E0F2
:102AD00061E00E94FF0987E061E00E94FF09FE01BA
:102AE000E854FF4F8081882309F0C0C080E00E9435
:102AF0003F0A84E00E943F0A87E00E943F0A0E944A
:102B00002D13FE01EB55FF4F80E090E0AAE7B4E4FF
:102B100080839183A283B3838E010F551F4FFE01E3
:102B2000EB55FF4F608171818281938120E030E01D
:102B30004AEF54E40E941F02DC01CB01F8018083BC
:102B40009183A283B383FE01EF55FF4F60817181B2
:102B50008281938120E030E040E85FE30E94250419
:102B6000882344F4FE01E156FF4F81E090E0918319
:102B7000808364C0FE01EF55FF4F608171818281C7
:102B8000938120E03FEF4FE757E40E94C5031816FA
:102B90000CF043C0FE01EB55FF4F608171818281D3
:102BA000938120E030E040E251E40E941F02DC010A
:102BB000CB018E0101561F4FBC01CD010E9449007F
:102BC000DC01CB01F801918380831FC0FE01E35635
:102BD000FF4F88EC90E091838083FE01E356FF4F26
:102BE000808191810197F1F7FE01E356FF4F9183B8
:102BF0008083DE01A156BF4FFE01E156FF4F808169
:102C00009181019711969C938E93FE01E156FF4F9F
:102C1000808191810097D1F669CF8E0101561F4FB7
:102C2000FE01EF55FF4F60817181828193810E9487
:102C30004900DC01CB01F80191838083DE01A556B8
:102C4000BF4FFE01E156FF4F8081918111969C9309
:102C50008E93FE01E556FF4F808191810197F1F738
:102C6000FE01E556FF4F9183808340CFFE01E8547B
:102C7000FF4F8081823009F0C4C080E061E00E9493
:102C8000BF0981E061E00E94BF09FE01E956FF4FE4
:102C900080E090E8ABE3B5E480839183A283B383C3
:102CA0008E010D561F4FFE01E956FF4F6081718165
:102CB0008281938120E030E04AEF54E40E941F02B9
:102CC000DC01CB01F80180839183A283B383FE01F1
:102CD000ED56FF4F608171818281938120E030E069
:102CE00040E85FE30E942504882344F4FE01EF5688
:102CF000FF4F81E090E09183808364C0FE01ED5638
:102D0000FF4F608171818281938120E03FEF4FE727
:102D100057E40E94C50318160CF043C0FE01E956A3
:102D2000FF4F608171818281938120E030E040E239
:102D300051E40E941F02DC01CB018E010F561F4F90
:102D4000BC01CD010E944900DC01CB01F801918357
:102D500080831FC0FE01E157FF4F88EC90E0918314
:102D60008083FE01E157FF4F808191810197F1F748
:102D7000FE01E157FF4F91838083DE01AF56BF4FC5
:102D8000FE01EF56FF4F80819181019711969C9330
:102D90008E93FE01EF56FF4F808191810097D1F60F
:102DA00027C08E010F561F4FFE01ED56FF4F608169
:102DB0007181828193810E944900DC01CB01F8017D
:102DC00091838083DE01A357BF4FFE01EF56FF4F73
:102DD000808191818D939C93FE01E357FF4F808109
:102DE00091810197F1F7FE01E357FF4F91838083B3
:102DF00080E061E00E94FF0981E061E00E94FF093C
:102E0000A3C6FE01E854FF4F8081813009F09CC6C3
:102E100080E061E00E94BF09FE01E757FF4F80E0BC
:102E200090E8ABE3B5E480839183A283B3838E0102
:102E30000B571F4FFE01E757FF4F60817181828161
:102E4000938120E030E04AEF54E40E941F02DC014D
:102E5000CB01F80180839183A283B383FE01EB57FA
:102E6000FF4F608171818281938120E030E040E8F2
:102E70005FE30E942504882344F4FE01ED57FF4FD1
:102E800081E090E09183808364C0FE01EB57FF4FA7
:102E9000608171818281938120E03FEF4FE757E4A9
:102EA0000E94C50318160CF043C0FE01E757FF4F00
:102EB000608171818281938120E030E040E251E4C1
:102EC0000E941F02DC01CB018E010D571F4FBC0178
:102ED000CD010E944900DC01CB01F8019183808380
:102EE0001FC0FE01EF57FF4F88EC90E09183808375
:102EF000FE01EF57FF4F808191810197F1F7FE01AD
:102F0000EF57FF4F91838083DE01AD57BF4FFE0126
:102F1000ED57FF4F80819181019711969C938E937D
:102F2000FE01ED57FF4F808191810097D1F627C0B8
:102F30008E010D571F4FFE01EB57FF4F60817181CE
:102F4000828193810E944900DC01CB01F8019183C9
:102F50008083DE01A158BF4FFE01ED57FF4F8081F6
:102F600091818D939C93FE01E158FF4F8081918167
:102F70000197F1F7FE01E158FF4F9183808380E0D4
:102F800061E00E94FF09E0C5FE01E954FF4F808126
:102F9000282F30E0FE01E654FF4F8081882F90E01B
:102FA00001972817390709F09FC5FE01E954FF4F23
:102FB0008081282F30E0CE0184549F4FFC01E20F26
:102FC000F31F4081FE01E954FF4F8081282F30E03C
:102FD000CE0181549F4FFC01E20FF31F80814817FF
:102FE00009F082C5FE01E754FF4FDE01A654BF4F32
:102FF00090818C91981709F077C582E061E00E947A
:10300000BF0985E061E00E94BF09FE01E558FF4F5E
:1030100080E090E4ACE9B5E480839183A283B3833C
:103020008E0109581F4FFE01E558FF4F60817181E5
:103030008281938120E030E04AEF54E40E941F0235
:10304000DC01CB01F80180839183A283B383FE016D
:10305000E958FF4F608171818281938120E030E0E7
:1030600040E85FE30E942504882344F4FE01EB5806
:10307000FF4F81E090E09183808364C0FE01E958B6
:10308000FF4F608171818281938120E03FEF4FE7A4
:1030900057E40E94C50318160CF043C0FE01E55822
:1030A000FF4F608171818281938120E030E040E2B6
:1030B00051E40E941F02DC01CB018E010B581F4F0F
:1030C000BC01CD010E944900DC01CB01F8019183D4
:1030D00080831FC0FE01ED58FF4F88EC90E0918384
:1030E0008083FE01ED58FF4F808191810197F1F7B8
:1030F000FE01ED58FF4F91838083DE01AB58BF4F37
:10310000FE01EB58FF4F80819181019711969C93AE
:103110008E93FE01EB58FF4F808191810097D1F68D
:1031200027C08E010B581F4FFE01E958FF4F6081E9
:103130007181828193810E944900DC01CB01F801F9
:1031400091838083DE01AF58BF4FFE01EB58FF4FE4
:10315000808191818D939C93FE01EF58FF4F808178
:1031600091810197F1F7FE01EF58FF4F9183808322
:1031700082E061E00E94FF0985E061E00E94FF09B2
:1031800080E061E00E94BF09FE01E359FF4F80E04B
:1031900090E0AAE7B4E480839183A283B3838E0195
:1031A00007591F4FFE01E359FF4F608171818281F2
:1031B000938120E030E04AEF54E40E941F02DC01DA
:1031C000CB01F80180839183A283B383FE01E75989
:1031D000FF4F608171818281938120E030E040E87F
:1031E0005FE30E942504882344F4FE01E959FF4F60
:1031F00081E090E09183808364C0FE01E759FF4F36
:10320000608171818281938120E03FEF4FE757E435
:103210000E94C50318160CF043C0FE01E359FF4F8E
:10322000608171818281938120E030E040E251E44D
:103230000E941F02DC01CB018E0109591F4FBC0106
:10324000CD010E944900DC01CB01F801918380830C
:103250001FC0FE01EB59FF4F88EC90E09183808303
:10326000FE01EB59FF4F808191810197F1F7FE013B
:10327000EB59FF4F91838083DE01A959BF4FFE01B7
:10328000E959FF4F80819181019711969C938E930C
:10329000FE01E959FF4F808191810097D1F627C047
:1032A0008E0109591F4FFE01E759FF4F608171815F
:1032B000828193810E944900DC01CB01F801918356
:1032C0008083DE01AD59BF4FFE01E959FF4F808178
:1032D00091818D939C93FE01ED59FF4F80819181E7
:1032E0000197F1F7FE01ED59FF4F9183808380E054
:1032F00061E00E94FF0981E061E00E94BF09FE01D8
:10330000E15AFF4F80E090E0AAE7B4E48083918324
:10331000A283B3838E01055A1F4FFE01E15AFF4F6E
:10332000608171818281938120E030E04AEF54E432
:103330000E941F02DC01CB01F80180839183A283EC
:10334000B383FE01E55AFF4F6081718182819381D1
:1033500020E030E040E85FE30E942504882344F445
:10336000FE01E75AFF4F81E090E09183808364C0C3
:10337000FE01E55AFF4F608171818281938120E0D7
:103380003FEF4FE757E40E94C50318160CF043C007
:10339000FE01E15AFF4F608171818281938120E0BB
:1033A00030E040E251E40E941F02DC01CB018E01BB
:1033B000075A1F4FBC01CD010E944900DC01CB011F
:1033C000F801918380831FC0FE01E95AFF4F88EC0A
:1033D00090E091838083FE01E95AFF4F80819181C3
:1033E0000197F1F7FE01E95AFF4F91838083DE01D7
:1033F000A75ABF4FFE01E75AFF4F80819181019785
:1034000011969C938E93FE01E75AFF4F8081918124
:103410000097D1F627C08E01075A1F4FFE01E55ACB
:10342000FF4F60817181828193810E944900DC019C
:10343000CB01F80191838083DE01AB5ABF4FFE01BF
:10344000E75AFF4F808191818D939C93FE01EB5A47
:10345000FF4F808191810197F1F7FE01EB5AFF4FF9
:103460009183808381E061E00E94FF0982E061E056
:103470000E94BF09FE01EF5AFF4F80E090E0AAE7EB
:10348000B4E480839183A283B3838E01035B1F4FD7
:10349000FE01EF5AFF4F608171818281938120E0AC
:1034A00030E04AEF54E40E941F02DC01CB01F80136
:1034B00080839183A283B383FE01E35BFF4F60812E
:1034C00071818281938120E030E040E85FE30E94D7
:1034D0002504882344F4FE01E55BFF4F81E090E082
:1034E0009183808364C0FE01E35BFF4F6081718143
:1034F0008281938120E03FEF4FE757E40E94C503AC
:1035000018160CF043C0FE01EF5AFF4F6081718125
:103510008281938120E030E040E251E40E941F026A
:10352000DC01CB018E01055B1F4FBC01CD010E9468
:103530004900DC01CB01F801918380831FC0FE01AB
:10354000E75BFF4F88EC90E091838083FE01E75BAF
:10355000FF4F808191810197F1F7FE01E75BFF4FFB
:1035600091838083DE01A55BBF4FFE01E55BFF4FCA
:1035700080819181019711969C938E93FE01E55B6A
:10358000FF4F808191810097D1F627C08E01055BA6
:103590001F4FFE01E35BFF4F608171818281938148
:1035A0000E944900DC01CB01F80191838083DE0198
:1035B000A95BBF4FFE01E55BFF4F808191818D9339
:1035C0009C93FE01E95BFF4F808191810197F1F7A8
:1035D000FE01E95BFF4F9183808382E061E00E94FE
:1035E000FF0983E061E00E94BF09FE01ED5BFF4F30
:1035F00080E090E0AAE7B4E480839183A283B38360
:103600008E01015C1F4FFE01ED5BFF4F60817181F8
:103610008281938120E030E04AEF54E40E941F024F
:10362000DC01CB01F80180839183A283B383FE0187
:10363000FF96608171818281938120E030E040E8D3
:103640005FE30E94250488232CF481E090E09EAF84
:103650008DAF46C0FE01FF966081718182819381AA
:1036600020E03FEF4FE757E40E94C503181664F5CA
:10367000FE01ED5BFF4F608171818281938120E0CB
:1036800030E040E251E40E941F02DC01CB01BC01AA
:10369000CD010E944900DC01CB019EAF8DAF0FC070
:1036A00088EC90E09CAF8BAF8BAD9CAD0197F1F7B0
:1036B0009CAF8BAF8DAD9EAD01979EAF8DAF8DADA5
:1036C0009EAD009769F716C0FE01FF96608171817B
:1036D000828193810E944900DC01CB019EAF8DAFB6
:1036E0008DAD9EAD9AAF89AF89AD9AAD0197F1F7D7
:1036F0009AAF89AF83E061E00E94FF0984E061E056
:103700000E94BF0980E090E0AAE7B4E48DAB9EABD5
:10371000AFABB8AF6DA97EA98FA998AD20E030E01E
:103720004AEF54E40E941F02DC01CB0189AB9AAB43
:10373000ABABBCAB69A97AA98BA99CA920E030E00E
:1037400040E85FE30E94250488232CF481E090E0A8
:1037500098AB8FA73FC069A97AA98BA99CA920E043
:103760003FEF4FE757E40E94C50318164CF56DA9CB
:103770007EA98FA998AD20E030E040E251E40E949C
:103780001F02DC01CB01BC01CD010E944900DC011C
:10379000CB0198AB8FA70FC088EC90E09EA78DA7B8
:1037A0008DA59EA50197F1F79EA78DA78FA598A936
:1037B000019798AB8FA78FA598A9009769F714C0B8
:1037C00069A97AA98BA99CA90E944900DC01CB01B7
:1037D00098AB8FA78FA598A99CA78BA78BA59CA515
:1037E0000197F1F79CA78BA784E061E00E94FF0995
:1037F00085E061E00E94BF0980E090E0AAE7B4E4C0
:103800008FA398A7A9A7BAA76FA178A589A59AA5FC
:1038100020E030E04AEF54E40E941F02DC01CB01BB
:103820008BA39CA3ADA3BEA36BA17CA18DA19EA1E4
:1038300020E030E040E85FE30E94250488232CF478
:1038400081E090E09AA389A33FC06BA17CA18DA1E8
:103850009EA120E03FEF4FE757E40E94C5031816F2
:103860004CF56FA178A589A59AA520E030E040E24B
:1038700051E40E941F02DC01CB01BC01CD010E947A
:103880004900DC01CB019AA389A30FC088EC90E02A
:1038900098A38F8F8F8D98A10197F1F798A38F8FA1
:1038A00089A19AA101979AA389A389A19AA10097B6
:1038B00069F714C06BA17CA18DA19EA10E94490053
:1038C000DC01CB019AA389A389A19AA19E8F8D8F38
:1038D0008D8D9E8D0197F1F79E8F8D8F85E061E034
:1038E0000E94FF0986E061E00E94BF0980E090E04D
:1038F000AAE7B4E4898F9A8FAB8FBC8F698D7A8DDC
:103900008B8D9C8D20E030E04AEF54E40E941F0232
:10391000DC01CB018D8B9E8BAF8BB88F6D897E893F
:103920008F89988D20E030E040E85FE30E94250415
:1039300088232CF481E090E09C8B8B8B3FC06D89B9
:103940007E898F89988D20E03FEF4FE757E40E94F2
:10395000C50318164CF5698D7A8D8B8D9C8D20E0F2
:1039600030E040E251E40E941F02DC01CB01BC01C7
:10397000CD010E944900DC01CB019C8B8B8B0FC0D9
:1039800088EC90E09A8B898B89899A890197F1F765
:103990009A8B898B8B899C8901979C8B8B8B8B89CC
:1039A0009C89009769F714C06D897E898F89988DED
:1039B0000E944900DC01CB019C8B8B8B8B899C89FD
:1039C000988B8F878F8598890197F1F7988B8F87D0
:1039D00086E061E00E94FF0987E061E00E94BF0984
:1039E00080E090E0AAE7B4E48B879C87AD87BE8730
:1039F0006B857C858D859E8520E030E04AEF54E420
:103A00000E941F02DC01CB018F839887A987BA87A8
:103A10006F81788589859A8520E030E040E85FE312
:103A20000E94250488232CF481E090E09E838D83FE
:103A30003FC06F81788589859A8520E03FEF4FE709
:103A400057E40E94C50318164CF56B857C858D855F
:103A50009E8520E030E040E251E40E941F02DC013C
:103A6000CB01BC01CD010E944900DC01CB019E834A
:103A70008D830FC088EC90E09C838B838B819C812D
:103A80000197F1F79C838B838D819E8101979E83A3
:103A90008D838D819E81009769F714C06F81788531
:103AA00089859A850E944900DC01CB019E838D8324
:103AB0008D819E819A83898389819A810197F1F70B
:103AC0009A83898387E061E00E94FF0980E090E0AB
:103AD000C353DF4F0FB6F894DEBF0FBECDBFCF91FB
:103AE000DF911F910F910895DE01A954BF4FFE0190
:103AF000E954FF4F80818F5F8C93FE01E954FF4FA3
:103B0000DE01A654BF4F90818C91981710F40C944D
:103B100070141AC0FE01E754FF4F8081282F30E057
:103B2000FE01E554FF4F4081CE0181549F4FFC01BF
:103B3000E20FF31F4083DE01A754BF4FFE01E7549D
:103B4000FF4F80818F5F8C93FE01E554FF4F8FEF15
:103B500080830C9454142F923F924F925F926F92F5
:103B60007F928F929F92AF92BF92CF92DF92EF920D
:103B7000FF920F931F93CF93DF93CDB7DEB7CA1B8E
:103B8000DB0B0FB6F894DEBF0FBECDBF09942A88B9
:103B9000398848885F846E847D848C849B84AA8461
:103BA000B984C884DF80EE80FD800C811B81AA81EE
:103BB000B981CE0FD11D0FB6F894DEBF0FBECDBFB9
:083BC000ED010895F894FFCF18
:103BC8000000000000000000C0F9A4B0999282F83B
:103BD800809003003132332B3435362D3738392A6B
:083BE8004330452F3235350052
:00000001FF
